{
	"contracts/HotelRoom.sol": {
		"HotelRoom": {
			"abi": [
				{
					"inputs": [],
					"stateMutability": "nonpayable",
					"type": "constructor"
				},
				{
					"anonymous": false,
					"inputs": [
						{
							"indexed": false,
							"internalType": "address",
							"name": "_occupant",
							"type": "address"
						},
						{
							"indexed": false,
							"internalType": "uint256",
							"name": "_amount",
							"type": "uint256"
						}
					],
					"name": "Occupy",
					"type": "event"
				},
				{
					"inputs": [],
					"name": "bookRoom",
					"outputs": [],
					"stateMutability": "payable",
					"type": "function"
				},
				{
					"inputs": [],
					"name": "currentStatus",
					"outputs": [
						{
							"internalType": "enum HotelRoom.Status",
							"name": "",
							"type": "uint8"
						}
					],
					"stateMutability": "view",
					"type": "function"
				},
				{
					"inputs": [],
					"name": "owner",
					"outputs": [
						{
							"internalType": "address payable",
							"name": "",
							"type": "address"
						}
					],
					"stateMutability": "view",
					"type": "function"
				}
			],
			"devdoc": {
				"kind": "dev",
				"methods": {},
				"version": 1
			},
			"evm": {
				"assembly": "    /* \"contracts/HotelRoom.sol\":57:970  contract HotelRoom {... */\n  mstore(0x40, 0x80)\n    /* \"contracts/HotelRoom.sol\":240:337  constructor (){... */\n  callvalue\n  dup1\n  iszero\n  tag_1\n  jumpi\n  0x00\n  dup1\n  revert\ntag_1:\n  pop\n    /* \"contracts/HotelRoom.sol\":280:290  msg.sender */\n  caller\n    /* \"contracts/HotelRoom.sol\":264:269  owner */\n  0x00\n  dup1\n    /* \"contracts/HotelRoom.sol\":264:291  owner = payable(msg.sender) */\n  0x0100\n  exp\n  dup2\n  sload\n  dup2\n  0xffffffffffffffffffffffffffffffffffffffff\n  mul\n  not\n  and\n  swap1\n  dup4\n  0xffffffffffffffffffffffffffffffffffffffff\n  and\n  mul\n  or\n  swap1\n  sstore\n  pop\n    /* \"contracts/HotelRoom.sol\":317:330  Status.Vacant */\n  0x00\n    /* \"contracts/HotelRoom.sol\":301:314  currentStatus */\n  dup1\n  0x14\n    /* \"contracts/HotelRoom.sol\":301:330  currentStatus = Status.Vacant */\n  0x0100\n  exp\n  dup2\n  sload\n  dup2\n  0xff\n  mul\n  not\n  and\n  swap1\n  dup4\n  0x01\n  dup2\n  gt\n  iszero\n  tag_4\n  jumpi\n  tag_5\n  tag_6\n  jump\t// in\ntag_5:\ntag_4:\n  mul\n  or\n  swap1\n  sstore\n  pop\n    /* \"contracts/HotelRoom.sol\":57:970  contract HotelRoom {... */\n  jump(tag_7)\n    /* \"#utility.yul\":7:187   */\ntag_6:\n    /* \"#utility.yul\":55:132   */\n  0x4e487b7100000000000000000000000000000000000000000000000000000000\n    /* \"#utility.yul\":52:53   */\n  0x00\n    /* \"#utility.yul\":45:133   */\n  mstore\n    /* \"#utility.yul\":152:156   */\n  0x21\n    /* \"#utility.yul\":149:150   */\n  0x04\n    /* \"#utility.yul\":142:157   */\n  mstore\n    /* \"#utility.yul\":176:180   */\n  0x24\n    /* \"#utility.yul\":173:174   */\n  0x00\n    /* \"#utility.yul\":166:181   */\n  revert\n    /* \"contracts/HotelRoom.sol\":57:970  contract HotelRoom {... */\ntag_7:\n  dataSize(sub_0)\n  dup1\n  dataOffset(sub_0)\n  0x00\n  codecopy\n  0x00\n  return\nstop\n\nsub_0: assembly {\n        /* \"contracts/HotelRoom.sol\":57:970  contract HotelRoom {... */\n      mstore(0x40, 0x80)\n      jumpi(tag_1, lt(calldatasize, 0x04))\n      shr(0xe0, calldataload(0x00))\n      dup1\n      0x8da5cb5b\n      eq\n      tag_2\n      jumpi\n      dup1\n      0xb55a3910\n      eq\n      tag_3\n      jumpi\n      dup1\n      0xef8a9235\n      eq\n      tag_4\n      jumpi\n    tag_1:\n      0x00\n      dup1\n      revert\n        /* \"contracts/HotelRoom.sol\":83:111  address payable public owner */\n    tag_2:\n      callvalue\n      dup1\n      iszero\n      tag_5\n      jumpi\n      0x00\n      dup1\n      revert\n    tag_5:\n      pop\n      tag_6\n      tag_7\n      jump\t// in\n    tag_6:\n      mload(0x40)\n      tag_8\n      swap2\n      swap1\n      tag_9\n      jump\t// in\n    tag_8:\n      mload(0x40)\n      dup1\n      swap2\n      sub\n      swap1\n      return\n        /* \"contracts/HotelRoom.sol\":648:967  function bookRoom() public payable checkFunds(20 ether) checkVacancy  {... */\n    tag_3:\n      tag_10\n      tag_11\n      jump\t// in\n    tag_10:\n      stop\n        /* \"contracts/HotelRoom.sol\":154:181  Status public currentStatus */\n    tag_4:\n      callvalue\n      dup1\n      iszero\n      tag_12\n      jumpi\n      0x00\n      dup1\n      revert\n    tag_12:\n      pop\n      tag_13\n      tag_14\n      jump\t// in\n    tag_13:\n      mload(0x40)\n      tag_15\n      swap2\n      swap1\n      tag_16\n      jump\t// in\n    tag_15:\n      mload(0x40)\n      dup1\n      swap2\n      sub\n      swap1\n      return\n        /* \"contracts/HotelRoom.sol\":83:111  address payable public owner */\n    tag_7:\n      0x00\n      dup1\n      sload\n      swap1\n      0x0100\n      exp\n      swap1\n      div\n      0xffffffffffffffffffffffffffffffffffffffff\n      and\n      dup2\n      jump\t// out\n        /* \"contracts/HotelRoom.sol\":648:967  function bookRoom() public payable checkFunds(20 ether) checkVacancy  {... */\n    tag_11:\n        /* \"contracts/HotelRoom.sol\":694:702  20 ether */\n      0x01158e460913d00000\n        /* \"contracts/HotelRoom.sol\":408:415  _amount */\n      dup1\n        /* \"contracts/HotelRoom.sol\":395:404  msg.value */\n      callvalue\n        /* \"contracts/HotelRoom.sol\":395:415  msg.value >= _amount */\n      lt\n      iszero\n        /* \"contracts/HotelRoom.sol\":387:478  require(msg.value >= _amount, \"Insufficient funds, please fund your account and try again\") */\n      tag_18\n      jumpi\n      mload(0x40)\n      0x08c379a000000000000000000000000000000000000000000000000000000000\n      dup2\n      mstore\n      0x04\n      add\n      tag_19\n      swap1\n      tag_20\n      jump\t// in\n    tag_19:\n      mload(0x40)\n      dup1\n      swap2\n      sub\n      swap1\n      revert\n    tag_18:\n        /* \"contracts/HotelRoom.sol\":559:572  Status.Vacant */\n      0x00\n        /* \"contracts/HotelRoom.sol\":542:572  currentStatus == Status.Vacant */\n      0x01\n      dup2\n      gt\n      iszero\n      tag_22\n      jumpi\n      tag_23\n      tag_24\n      jump\t// in\n    tag_23:\n    tag_22:\n        /* \"contracts/HotelRoom.sol\":542:555  currentStatus */\n      0x00\n      0x14\n      swap1\n      sload\n      swap1\n      0x0100\n      exp\n      swap1\n      div\n      0xff\n      and\n        /* \"contracts/HotelRoom.sol\":542:572  currentStatus == Status.Vacant */\n      0x01\n      dup2\n      gt\n      iszero\n      tag_25\n      jumpi\n      tag_26\n      tag_24\n      jump\t// in\n    tag_26:\n    tag_25:\n      eq\n        /* \"contracts/HotelRoom.sol\":534:624  require(currentStatus == Status.Vacant, \"Room is occupied, check in again some other day\") */\n      tag_27\n      jumpi\n      mload(0x40)\n      0x08c379a000000000000000000000000000000000000000000000000000000000\n      dup2\n      mstore\n      0x04\n      add\n      tag_28\n      swap1\n      tag_29\n      jump\t// in\n    tag_28:\n      mload(0x40)\n      dup1\n      swap2\n      sub\n      swap1\n      revert\n    tag_27:\n        /* \"contracts/HotelRoom.sol\":753:768  Status.Occupied */\n      0x01\n        /* \"contracts/HotelRoom.sol\":737:750  currentStatus */\n      0x00\n      0x14\n        /* \"contracts/HotelRoom.sol\":737:768  currentStatus = Status.Occupied */\n      0x0100\n      exp\n      dup2\n      sload\n      dup2\n      0xff\n      mul\n      not\n      and\n      swap1\n      dup4\n      0x01\n      dup2\n      gt\n      iszero\n      tag_31\n      jumpi\n      tag_32\n      tag_24\n      jump\t// in\n    tag_32:\n    tag_31:\n      mul\n      or\n      swap1\n      sstore\n      pop\n        /* \"contracts/HotelRoom.sol\":788:793  owner */\n      0x00\n      dup1\n      sload\n      swap1\n      0x0100\n      exp\n      swap1\n      div\n      0xffffffffffffffffffffffffffffffffffffffff\n      and\n        /* \"contracts/HotelRoom.sol\":788:802  owner.transfer */\n      0xffffffffffffffffffffffffffffffffffffffff\n      and\n        /* \"contracts/HotelRoom.sol\":788:813  owner.transfer(msg.value) */\n      0x08fc\n        /* \"contracts/HotelRoom.sol\":803:812  msg.value */\n      callvalue\n        /* \"contracts/HotelRoom.sol\":788:813  owner.transfer(msg.value) */\n      swap1\n      dup2\n      iszero\n      mul\n      swap1\n      mload(0x40)\n      0x00\n      mload(0x40)\n      dup1\n      dup4\n      sub\n      dup2\n      dup6\n      dup9\n      dup9\n      call\n      swap4\n      pop\n      pop\n      pop\n      pop\n      iszero\n      dup1\n      iszero\n      tag_34\n      jumpi\n      returndatasize\n      0x00\n      dup1\n      returndatacopy\n      revert(0x00, returndatasize)\n    tag_34:\n      pop\n        /* \"contracts/HotelRoom.sol\":931:960  Occupy(msg.sender, msg.value) */\n      0xba951166d42eb077151bdecb7cf6027562f04f0143b0c141b1bb0a33eef5d693\n        /* \"contracts/HotelRoom.sol\":938:948  msg.sender */\n      caller\n        /* \"contracts/HotelRoom.sol\":950:959  msg.value */\n      callvalue\n        /* \"contracts/HotelRoom.sol\":931:960  Occupy(msg.sender, msg.value) */\n      mload(0x40)\n      tag_35\n      swap3\n      swap2\n      swap1\n      tag_36\n      jump\t// in\n    tag_35:\n      mload(0x40)\n      dup1\n      swap2\n      sub\n      swap1\n      log1\n        /* \"contracts/HotelRoom.sol\":648:967  function bookRoom() public payable checkFunds(20 ether) checkVacancy  {... */\n      pop\n      jump\t// out\n        /* \"contracts/HotelRoom.sol\":154:181  Status public currentStatus */\n    tag_14:\n      0x00\n      0x14\n      swap1\n      sload\n      swap1\n      0x0100\n      exp\n      swap1\n      div\n      0xff\n      and\n      dup2\n      jump\t// out\n        /* \"#utility.yul\":7:133   */\n    tag_37:\n        /* \"#utility.yul\":44:51   */\n      0x00\n        /* \"#utility.yul\":84:126   */\n      0xffffffffffffffffffffffffffffffffffffffff\n        /* \"#utility.yul\":77:82   */\n      dup3\n        /* \"#utility.yul\":73:127   */\n      and\n        /* \"#utility.yul\":62:127   */\n      swap1\n      pop\n        /* \"#utility.yul\":7:133   */\n      swap2\n      swap1\n      pop\n      jump\t// out\n        /* \"#utility.yul\":139:243   */\n    tag_38:\n        /* \"#utility.yul\":184:191   */\n      0x00\n        /* \"#utility.yul\":213:237   */\n      tag_56\n        /* \"#utility.yul\":231:236   */\n      dup3\n        /* \"#utility.yul\":213:237   */\n      tag_37\n      jump\t// in\n    tag_56:\n        /* \"#utility.yul\":202:237   */\n      swap1\n      pop\n        /* \"#utility.yul\":139:243   */\n      swap2\n      swap1\n      pop\n      jump\t// out\n        /* \"#utility.yul\":249:391   */\n    tag_39:\n        /* \"#utility.yul\":352:384   */\n      tag_58\n        /* \"#utility.yul\":378:383   */\n      dup2\n        /* \"#utility.yul\":352:384   */\n      tag_38\n      jump\t// in\n    tag_58:\n        /* \"#utility.yul\":347:350   */\n      dup3\n        /* \"#utility.yul\":340:385   */\n      mstore\n        /* \"#utility.yul\":249:391   */\n      pop\n      pop\n      jump\t// out\n        /* \"#utility.yul\":397:651   */\n    tag_9:\n        /* \"#utility.yul\":506:510   */\n      0x00\n        /* \"#utility.yul\":544:546   */\n      0x20\n        /* \"#utility.yul\":533:542   */\n      dup3\n        /* \"#utility.yul\":529:547   */\n      add\n        /* \"#utility.yul\":521:547   */\n      swap1\n      pop\n        /* \"#utility.yul\":557:644   */\n      tag_60\n        /* \"#utility.yul\":641:642   */\n      0x00\n        /* \"#utility.yul\":630:639   */\n      dup4\n        /* \"#utility.yul\":626:643   */\n      add\n        /* \"#utility.yul\":617:623   */\n      dup5\n        /* \"#utility.yul\":557:644   */\n      tag_39\n      jump\t// in\n    tag_60:\n        /* \"#utility.yul\":397:651   */\n      swap3\n      swap2\n      pop\n      pop\n      jump\t// out\n        /* \"#utility.yul\":657:837   */\n    tag_24:\n        /* \"#utility.yul\":705:782   */\n      0x4e487b7100000000000000000000000000000000000000000000000000000000\n        /* \"#utility.yul\":702:703   */\n      0x00\n        /* \"#utility.yul\":695:783   */\n      mstore\n        /* \"#utility.yul\":802:806   */\n      0x21\n        /* \"#utility.yul\":799:800   */\n      0x04\n        /* \"#utility.yul\":792:807   */\n      mstore\n        /* \"#utility.yul\":826:830   */\n      0x24\n        /* \"#utility.yul\":823:824   */\n      0x00\n        /* \"#utility.yul\":816:831   */\n      revert\n        /* \"#utility.yul\":843:956   */\n    tag_40:\n        /* \"#utility.yul\":924:925   */\n      0x02\n        /* \"#utility.yul\":917:922   */\n      dup2\n        /* \"#utility.yul\":914:926   */\n      lt\n        /* \"#utility.yul\":904:950   */\n      tag_63\n      jumpi\n        /* \"#utility.yul\":930:948   */\n      tag_64\n      tag_24\n      jump\t// in\n    tag_64:\n        /* \"#utility.yul\":904:950   */\n    tag_63:\n        /* \"#utility.yul\":843:956   */\n      pop\n      jump\t// out\n        /* \"#utility.yul\":962:1089   */\n    tag_41:\n        /* \"#utility.yul\":1007:1014   */\n      0x00\n        /* \"#utility.yul\":1036:1041   */\n      dup2\n        /* \"#utility.yul\":1025:1041   */\n      swap1\n      pop\n        /* \"#utility.yul\":1042:1083   */\n      tag_66\n        /* \"#utility.yul\":1077:1082   */\n      dup3\n        /* \"#utility.yul\":1042:1083   */\n      tag_40\n      jump\t// in\n    tag_66:\n        /* \"#utility.yul\":962:1089   */\n      swap2\n      swap1\n      pop\n      jump\t// out\n        /* \"#utility.yul\":1095:1222   */\n    tag_42:\n        /* \"#utility.yul\":1151:1160   */\n      0x00\n        /* \"#utility.yul\":1184:1216   */\n      tag_68\n        /* \"#utility.yul\":1210:1215   */\n      dup3\n        /* \"#utility.yul\":1184:1216   */\n      tag_41\n      jump\t// in\n    tag_68:\n        /* \"#utility.yul\":1171:1216   */\n      swap1\n      pop\n        /* \"#utility.yul\":1095:1222   */\n      swap2\n      swap1\n      pop\n      jump\t// out\n        /* \"#utility.yul\":1228:1371   */\n    tag_43:\n        /* \"#utility.yul\":1321:1364   */\n      tag_70\n        /* \"#utility.yul\":1358:1363   */\n      dup2\n        /* \"#utility.yul\":1321:1364   */\n      tag_42\n      jump\t// in\n    tag_70:\n        /* \"#utility.yul\":1316:1319   */\n      dup3\n        /* \"#utility.yul\":1309:1365   */\n      mstore\n        /* \"#utility.yul\":1228:1371   */\n      pop\n      pop\n      jump\t// out\n        /* \"#utility.yul\":1377:1611   */\n    tag_16:\n        /* \"#utility.yul\":1476:1480   */\n      0x00\n        /* \"#utility.yul\":1514:1516   */\n      0x20\n        /* \"#utility.yul\":1503:1512   */\n      dup3\n        /* \"#utility.yul\":1499:1517   */\n      add\n        /* \"#utility.yul\":1491:1517   */\n      swap1\n      pop\n        /* \"#utility.yul\":1527:1604   */\n      tag_72\n        /* \"#utility.yul\":1601:1602   */\n      0x00\n        /* \"#utility.yul\":1590:1599   */\n      dup4\n        /* \"#utility.yul\":1586:1603   */\n      add\n        /* \"#utility.yul\":1577:1583   */\n      dup5\n        /* \"#utility.yul\":1527:1604   */\n      tag_43\n      jump\t// in\n    tag_72:\n        /* \"#utility.yul\":1377:1611   */\n      swap3\n      swap2\n      pop\n      pop\n      jump\t// out\n        /* \"#utility.yul\":1617:1786   */\n    tag_44:\n        /* \"#utility.yul\":1701:1712   */\n      0x00\n        /* \"#utility.yul\":1735:1741   */\n      dup3\n        /* \"#utility.yul\":1730:1733   */\n      dup3\n        /* \"#utility.yul\":1723:1742   */\n      mstore\n        /* \"#utility.yul\":1775:1779   */\n      0x20\n        /* \"#utility.yul\":1770:1773   */\n      dup3\n        /* \"#utility.yul\":1766:1780   */\n      add\n        /* \"#utility.yul\":1751:1780   */\n      swap1\n      pop\n        /* \"#utility.yul\":1617:1786   */\n      swap3\n      swap2\n      pop\n      pop\n      jump\t// out\n        /* \"#utility.yul\":1792:2037   */\n    tag_45:\n        /* \"#utility.yul\":1932:1966   */\n      0x496e73756666696369656e742066756e64732c20706c656173652066756e6420\n        /* \"#utility.yul\":1928:1929   */\n      0x00\n        /* \"#utility.yul\":1920:1926   */\n      dup3\n        /* \"#utility.yul\":1916:1930   */\n      add\n        /* \"#utility.yul\":1909:1967   */\n      mstore\n        /* \"#utility.yul\":2001:2029   */\n      0x796f7572206163636f756e7420616e642074727920616761696e000000000000\n        /* \"#utility.yul\":1996:1998   */\n      0x20\n        /* \"#utility.yul\":1988:1994   */\n      dup3\n        /* \"#utility.yul\":1984:1999   */\n      add\n        /* \"#utility.yul\":1977:2030   */\n      mstore\n        /* \"#utility.yul\":1792:2037   */\n      pop\n      jump\t// out\n        /* \"#utility.yul\":2043:2409   */\n    tag_46:\n        /* \"#utility.yul\":2185:2188   */\n      0x00\n        /* \"#utility.yul\":2206:2273   */\n      tag_76\n        /* \"#utility.yul\":2270:2272   */\n      0x3a\n        /* \"#utility.yul\":2265:2268   */\n      dup4\n        /* \"#utility.yul\":2206:2273   */\n      tag_44\n      jump\t// in\n    tag_76:\n        /* \"#utility.yul\":2199:2273   */\n      swap2\n      pop\n        /* \"#utility.yul\":2282:2375   */\n      tag_77\n        /* \"#utility.yul\":2371:2374   */\n      dup3\n        /* \"#utility.yul\":2282:2375   */\n      tag_45\n      jump\t// in\n    tag_77:\n        /* \"#utility.yul\":2400:2402   */\n      0x40\n        /* \"#utility.yul\":2395:2398   */\n      dup3\n        /* \"#utility.yul\":2391:2403   */\n      add\n        /* \"#utility.yul\":2384:2403   */\n      swap1\n      pop\n        /* \"#utility.yul\":2043:2409   */\n      swap2\n      swap1\n      pop\n      jump\t// out\n        /* \"#utility.yul\":2415:2834   */\n    tag_20:\n        /* \"#utility.yul\":2581:2585   */\n      0x00\n        /* \"#utility.yul\":2619:2621   */\n      0x20\n        /* \"#utility.yul\":2608:2617   */\n      dup3\n        /* \"#utility.yul\":2604:2622   */\n      add\n        /* \"#utility.yul\":2596:2622   */\n      swap1\n      pop\n        /* \"#utility.yul\":2668:2677   */\n      dup2\n        /* \"#utility.yul\":2662:2666   */\n      dup2\n        /* \"#utility.yul\":2658:2678   */\n      sub\n        /* \"#utility.yul\":2654:2655   */\n      0x00\n        /* \"#utility.yul\":2643:2652   */\n      dup4\n        /* \"#utility.yul\":2639:2656   */\n      add\n        /* \"#utility.yul\":2632:2679   */\n      mstore\n        /* \"#utility.yul\":2696:2827   */\n      tag_79\n        /* \"#utility.yul\":2822:2826   */\n      dup2\n        /* \"#utility.yul\":2696:2827   */\n      tag_46\n      jump\t// in\n    tag_79:\n        /* \"#utility.yul\":2688:2827   */\n      swap1\n      pop\n        /* \"#utility.yul\":2415:2834   */\n      swap2\n      swap1\n      pop\n      jump\t// out\n        /* \"#utility.yul\":2840:3074   */\n    tag_47:\n        /* \"#utility.yul\":2980:3014   */\n      0x526f6f6d206973206f636375706965642c20636865636b20696e20616761696e\n        /* \"#utility.yul\":2976:2977   */\n      0x00\n        /* \"#utility.yul\":2968:2974   */\n      dup3\n        /* \"#utility.yul\":2964:2978   */\n      add\n        /* \"#utility.yul\":2957:3015   */\n      mstore\n        /* \"#utility.yul\":3049:3066   */\n      0x20736f6d65206f74686572206461790000000000000000000000000000000000\n        /* \"#utility.yul\":3044:3046   */\n      0x20\n        /* \"#utility.yul\":3036:3042   */\n      dup3\n        /* \"#utility.yul\":3032:3047   */\n      add\n        /* \"#utility.yul\":3025:3067   */\n      mstore\n        /* \"#utility.yul\":2840:3074   */\n      pop\n      jump\t// out\n        /* \"#utility.yul\":3080:3446   */\n    tag_48:\n        /* \"#utility.yul\":3222:3225   */\n      0x00\n        /* \"#utility.yul\":3243:3310   */\n      tag_82\n        /* \"#utility.yul\":3307:3309   */\n      0x2f\n        /* \"#utility.yul\":3302:3305   */\n      dup4\n        /* \"#utility.yul\":3243:3310   */\n      tag_44\n      jump\t// in\n    tag_82:\n        /* \"#utility.yul\":3236:3310   */\n      swap2\n      pop\n        /* \"#utility.yul\":3319:3412   */\n      tag_83\n        /* \"#utility.yul\":3408:3411   */\n      dup3\n        /* \"#utility.yul\":3319:3412   */\n      tag_47\n      jump\t// in\n    tag_83:\n        /* \"#utility.yul\":3437:3439   */\n      0x40\n        /* \"#utility.yul\":3432:3435   */\n      dup3\n        /* \"#utility.yul\":3428:3440   */\n      add\n        /* \"#utility.yul\":3421:3440   */\n      swap1\n      pop\n        /* \"#utility.yul\":3080:3446   */\n      swap2\n      swap1\n      pop\n      jump\t// out\n        /* \"#utility.yul\":3452:3871   */\n    tag_29:\n        /* \"#utility.yul\":3618:3622   */\n      0x00\n        /* \"#utility.yul\":3656:3658   */\n      0x20\n        /* \"#utility.yul\":3645:3654   */\n      dup3\n        /* \"#utility.yul\":3641:3659   */\n      add\n        /* \"#utility.yul\":3633:3659   */\n      swap1\n      pop\n        /* \"#utility.yul\":3705:3714   */\n      dup2\n        /* \"#utility.yul\":3699:3703   */\n      dup2\n        /* \"#utility.yul\":3695:3715   */\n      sub\n        /* \"#utility.yul\":3691:3692   */\n      0x00\n        /* \"#utility.yul\":3680:3689   */\n      dup4\n        /* \"#utility.yul\":3676:3693   */\n      add\n        /* \"#utility.yul\":3669:3716   */\n      mstore\n        /* \"#utility.yul\":3733:3864   */\n      tag_85\n        /* \"#utility.yul\":3859:3863   */\n      dup2\n        /* \"#utility.yul\":3733:3864   */\n      tag_48\n      jump\t// in\n    tag_85:\n        /* \"#utility.yul\":3725:3864   */\n      swap1\n      pop\n        /* \"#utility.yul\":3452:3871   */\n      swap2\n      swap1\n      pop\n      jump\t// out\n        /* \"#utility.yul\":3877:3973   */\n    tag_49:\n        /* \"#utility.yul\":3914:3921   */\n      0x00\n        /* \"#utility.yul\":3943:3967   */\n      tag_87\n        /* \"#utility.yul\":3961:3966   */\n      dup3\n        /* \"#utility.yul\":3943:3967   */\n      tag_37\n      jump\t// in\n    tag_87:\n        /* \"#utility.yul\":3932:3967   */\n      swap1\n      pop\n        /* \"#utility.yul\":3877:3973   */\n      swap2\n      swap1\n      pop\n      jump\t// out\n        /* \"#utility.yul\":3979:4097   */\n    tag_50:\n        /* \"#utility.yul\":4066:4090   */\n      tag_89\n        /* \"#utility.yul\":4084:4089   */\n      dup2\n        /* \"#utility.yul\":4066:4090   */\n      tag_49\n      jump\t// in\n    tag_89:\n        /* \"#utility.yul\":4061:4064   */\n      dup3\n        /* \"#utility.yul\":4054:4091   */\n      mstore\n        /* \"#utility.yul\":3979:4097   */\n      pop\n      pop\n      jump\t// out\n        /* \"#utility.yul\":4103:4180   */\n    tag_51:\n        /* \"#utility.yul\":4140:4147   */\n      0x00\n        /* \"#utility.yul\":4169:4174   */\n      dup2\n        /* \"#utility.yul\":4158:4174   */\n      swap1\n      pop\n        /* \"#utility.yul\":4103:4180   */\n      swap2\n      swap1\n      pop\n      jump\t// out\n        /* \"#utility.yul\":4186:4304   */\n    tag_52:\n        /* \"#utility.yul\":4273:4297   */\n      tag_92\n        /* \"#utility.yul\":4291:4296   */\n      dup2\n        /* \"#utility.yul\":4273:4297   */\n      tag_51\n      jump\t// in\n    tag_92:\n        /* \"#utility.yul\":4268:4271   */\n      dup3\n        /* \"#utility.yul\":4261:4298   */\n      mstore\n        /* \"#utility.yul\":4186:4304   */\n      pop\n      pop\n      jump\t// out\n        /* \"#utility.yul\":4310:4642   */\n    tag_36:\n        /* \"#utility.yul\":4431:4435   */\n      0x00\n        /* \"#utility.yul\":4469:4471   */\n      0x40\n        /* \"#utility.yul\":4458:4467   */\n      dup3\n        /* \"#utility.yul\":4454:4472   */\n      add\n        /* \"#utility.yul\":4446:4472   */\n      swap1\n      pop\n        /* \"#utility.yul\":4482:4553   */\n      tag_94\n        /* \"#utility.yul\":4550:4551   */\n      0x00\n        /* \"#utility.yul\":4539:4548   */\n      dup4\n        /* \"#utility.yul\":4535:4552   */\n      add\n        /* \"#utility.yul\":4526:4532   */\n      dup6\n        /* \"#utility.yul\":4482:4553   */\n      tag_50\n      jump\t// in\n    tag_94:\n        /* \"#utility.yul\":4563:4635   */\n      tag_95\n        /* \"#utility.yul\":4631:4633   */\n      0x20\n        /* \"#utility.yul\":4620:4629   */\n      dup4\n        /* \"#utility.yul\":4616:4634   */\n      add\n        /* \"#utility.yul\":4607:4613   */\n      dup5\n        /* \"#utility.yul\":4563:4635   */\n      tag_52\n      jump\t// in\n    tag_95:\n        /* \"#utility.yul\":4310:4642   */\n      swap4\n      swap3\n      pop\n      pop\n      pop\n      jump\t// out\n\n    auxdata: 0xa264697066735822122079bb9518ded15a4366d37c17368c3e6bb97df0225cfec88dd4d574b67d43f56364736f6c634300081a0033\n}\n",
				"bytecode": {
					"linkReferences": {},
					"object": "6080604052348015600e575f80fd5b50335f806101000a81548173ffffffffffffffffffffffffffffffffffffffff021916908373ffffffffffffffffffffffffffffffffffffffff1602179055505f8060146101000a81548160ff02191690836001811115606f57606e6078565b5b021790555060a5565b7f4e487b71000000000000000000000000000000000000000000000000000000005f52602160045260245ffd5b6104f9806100b25f395ff3fe608060405260043610610033575f3560e01c80638da5cb5b14610037578063b55a391014610061578063ef8a92351461006b575b5f80fd5b348015610042575f80fd5b5061004b610095565b6040516100589190610293565b60405180910390f35b6100696100b8565b005b348015610076575f80fd5b5061007f610242565b60405161008c919061031f565b60405180910390f35b5f8054906101000a900473ffffffffffffffffffffffffffffffffffffffff1681565b6801158e460913d0000080341015610105576040517f08c379a00000000000000000000000000000000000000000000000000000000081526004016100fc906103b8565b60405180910390fd5b5f6001811115610118576101176102ac565b5b5f60149054906101000a900460ff166001811115610139576101386102ac565b5b14610179576040517f08c379a000000000000000000000000000000000000000000000000000000000815260040161017090610446565b60405180910390fd5b60015f60146101000a81548160ff0219169083600181111561019e5761019d6102ac565b5b02179055505f8054906101000a900473ffffffffffffffffffffffffffffffffffffffff1673ffffffffffffffffffffffffffffffffffffffff166108fc3490811502906040515f60405180830381858888f19350505050158015610205573d5f803e3d5ffd5b507fba951166d42eb077151bdecb7cf6027562f04f0143b0c141b1bb0a33eef5d693333460405161023792919061049c565b60405180910390a150565b5f60149054906101000a900460ff1681565b5f73ffffffffffffffffffffffffffffffffffffffff82169050919050565b5f61027d82610254565b9050919050565b61028d81610273565b82525050565b5f6020820190506102a65f830184610284565b92915050565b7f4e487b71000000000000000000000000000000000000000000000000000000005f52602160045260245ffd5b600281106102ea576102e96102ac565b5b50565b5f8190506102fa826102d9565b919050565b5f610309826102ed565b9050919050565b610319816102ff565b82525050565b5f6020820190506103325f830184610310565b92915050565b5f82825260208201905092915050565b7f496e73756666696369656e742066756e64732c20706c656173652066756e64205f8201527f796f7572206163636f756e7420616e642074727920616761696e000000000000602082015250565b5f6103a2603a83610338565b91506103ad82610348565b604082019050919050565b5f6020820190508181035f8301526103cf81610396565b9050919050565b7f526f6f6d206973206f636375706965642c20636865636b20696e20616761696e5f8201527f20736f6d65206f74686572206461790000000000000000000000000000000000602082015250565b5f610430602f83610338565b915061043b826103d6565b604082019050919050565b5f6020820190508181035f83015261045d81610424565b9050919050565b5f61046e82610254565b9050919050565b61047e81610464565b82525050565b5f819050919050565b61049681610484565b82525050565b5f6040820190506104af5f830185610475565b6104bc602083018461048d565b939250505056fea264697066735822122079bb9518ded15a4366d37c17368c3e6bb97df0225cfec88dd4d574b67d43f56364736f6c634300081a0033",
					"opcodes": "PUSH1 0x80 PUSH1 0x40 MSTORE CALLVALUE DUP1 ISZERO PUSH1 0xE JUMPI PUSH0 DUP1 REVERT JUMPDEST POP CALLER PUSH0 DUP1 PUSH2 0x100 EXP DUP2 SLOAD DUP2 PUSH20 0xFFFFFFFFFFFFFFFFFFFFFFFFFFFFFFFFFFFFFFFF MUL NOT AND SWAP1 DUP4 PUSH20 0xFFFFFFFFFFFFFFFFFFFFFFFFFFFFFFFFFFFFFFFF AND MUL OR SWAP1 SSTORE POP PUSH0 DUP1 PUSH1 0x14 PUSH2 0x100 EXP DUP2 SLOAD DUP2 PUSH1 0xFF MUL NOT AND SWAP1 DUP4 PUSH1 0x1 DUP2 GT ISZERO PUSH1 0x6F JUMPI PUSH1 0x6E PUSH1 0x78 JUMP JUMPDEST JUMPDEST MUL OR SWAP1 SSTORE POP PUSH1 0xA5 JUMP JUMPDEST PUSH32 0x4E487B7100000000000000000000000000000000000000000000000000000000 PUSH0 MSTORE PUSH1 0x21 PUSH1 0x4 MSTORE PUSH1 0x24 PUSH0 REVERT JUMPDEST PUSH2 0x4F9 DUP1 PUSH2 0xB2 PUSH0 CODECOPY PUSH0 RETURN INVALID PUSH1 0x80 PUSH1 0x40 MSTORE PUSH1 0x4 CALLDATASIZE LT PUSH2 0x33 JUMPI PUSH0 CALLDATALOAD PUSH1 0xE0 SHR DUP1 PUSH4 0x8DA5CB5B EQ PUSH2 0x37 JUMPI DUP1 PUSH4 0xB55A3910 EQ PUSH2 0x61 JUMPI DUP1 PUSH4 0xEF8A9235 EQ PUSH2 0x6B JUMPI JUMPDEST PUSH0 DUP1 REVERT JUMPDEST CALLVALUE DUP1 ISZERO PUSH2 0x42 JUMPI PUSH0 DUP1 REVERT JUMPDEST POP PUSH2 0x4B PUSH2 0x95 JUMP JUMPDEST PUSH1 0x40 MLOAD PUSH2 0x58 SWAP2 SWAP1 PUSH2 0x293 JUMP JUMPDEST PUSH1 0x40 MLOAD DUP1 SWAP2 SUB SWAP1 RETURN JUMPDEST PUSH2 0x69 PUSH2 0xB8 JUMP JUMPDEST STOP JUMPDEST CALLVALUE DUP1 ISZERO PUSH2 0x76 JUMPI PUSH0 DUP1 REVERT JUMPDEST POP PUSH2 0x7F PUSH2 0x242 JUMP JUMPDEST PUSH1 0x40 MLOAD PUSH2 0x8C SWAP2 SWAP1 PUSH2 0x31F JUMP JUMPDEST PUSH1 0x40 MLOAD DUP1 SWAP2 SUB SWAP1 RETURN JUMPDEST PUSH0 DUP1 SLOAD SWAP1 PUSH2 0x100 EXP SWAP1 DIV PUSH20 0xFFFFFFFFFFFFFFFFFFFFFFFFFFFFFFFFFFFFFFFF AND DUP2 JUMP JUMPDEST PUSH9 0x1158E460913D00000 DUP1 CALLVALUE LT ISZERO PUSH2 0x105 JUMPI PUSH1 0x40 MLOAD PUSH32 0x8C379A000000000000000000000000000000000000000000000000000000000 DUP2 MSTORE PUSH1 0x4 ADD PUSH2 0xFC SWAP1 PUSH2 0x3B8 JUMP JUMPDEST PUSH1 0x40 MLOAD DUP1 SWAP2 SUB SWAP1 REVERT JUMPDEST PUSH0 PUSH1 0x1 DUP2 GT ISZERO PUSH2 0x118 JUMPI PUSH2 0x117 PUSH2 0x2AC JUMP JUMPDEST JUMPDEST PUSH0 PUSH1 0x14 SWAP1 SLOAD SWAP1 PUSH2 0x100 EXP SWAP1 DIV PUSH1 0xFF AND PUSH1 0x1 DUP2 GT ISZERO PUSH2 0x139 JUMPI PUSH2 0x138 PUSH2 0x2AC JUMP JUMPDEST JUMPDEST EQ PUSH2 0x179 JUMPI PUSH1 0x40 MLOAD PUSH32 0x8C379A000000000000000000000000000000000000000000000000000000000 DUP2 MSTORE PUSH1 0x4 ADD PUSH2 0x170 SWAP1 PUSH2 0x446 JUMP JUMPDEST PUSH1 0x40 MLOAD DUP1 SWAP2 SUB SWAP1 REVERT JUMPDEST PUSH1 0x1 PUSH0 PUSH1 0x14 PUSH2 0x100 EXP DUP2 SLOAD DUP2 PUSH1 0xFF MUL NOT AND SWAP1 DUP4 PUSH1 0x1 DUP2 GT ISZERO PUSH2 0x19E JUMPI PUSH2 0x19D PUSH2 0x2AC JUMP JUMPDEST JUMPDEST MUL OR SWAP1 SSTORE POP PUSH0 DUP1 SLOAD SWAP1 PUSH2 0x100 EXP SWAP1 DIV PUSH20 0xFFFFFFFFFFFFFFFFFFFFFFFFFFFFFFFFFFFFFFFF AND PUSH20 0xFFFFFFFFFFFFFFFFFFFFFFFFFFFFFFFFFFFFFFFF AND PUSH2 0x8FC CALLVALUE SWAP1 DUP2 ISZERO MUL SWAP1 PUSH1 0x40 MLOAD PUSH0 PUSH1 0x40 MLOAD DUP1 DUP4 SUB DUP2 DUP6 DUP9 DUP9 CALL SWAP4 POP POP POP POP ISZERO DUP1 ISZERO PUSH2 0x205 JUMPI RETURNDATASIZE PUSH0 DUP1 RETURNDATACOPY RETURNDATASIZE PUSH0 REVERT JUMPDEST POP PUSH32 0xBA951166D42EB077151BDECB7CF6027562F04F0143B0C141B1BB0A33EEF5D693 CALLER CALLVALUE PUSH1 0x40 MLOAD PUSH2 0x237 SWAP3 SWAP2 SWAP1 PUSH2 0x49C JUMP JUMPDEST PUSH1 0x40 MLOAD DUP1 SWAP2 SUB SWAP1 LOG1 POP JUMP JUMPDEST PUSH0 PUSH1 0x14 SWAP1 SLOAD SWAP1 PUSH2 0x100 EXP SWAP1 DIV PUSH1 0xFF AND DUP2 JUMP JUMPDEST PUSH0 PUSH20 0xFFFFFFFFFFFFFFFFFFFFFFFFFFFFFFFFFFFFFFFF DUP3 AND SWAP1 POP SWAP2 SWAP1 POP JUMP JUMPDEST PUSH0 PUSH2 0x27D DUP3 PUSH2 0x254 JUMP JUMPDEST SWAP1 POP SWAP2 SWAP1 POP JUMP JUMPDEST PUSH2 0x28D DUP2 PUSH2 0x273 JUMP JUMPDEST DUP3 MSTORE POP POP JUMP JUMPDEST PUSH0 PUSH1 0x20 DUP3 ADD SWAP1 POP PUSH2 0x2A6 PUSH0 DUP4 ADD DUP5 PUSH2 0x284 JUMP JUMPDEST SWAP3 SWAP2 POP POP JUMP JUMPDEST PUSH32 0x4E487B7100000000000000000000000000000000000000000000000000000000 PUSH0 MSTORE PUSH1 0x21 PUSH1 0x4 MSTORE PUSH1 0x24 PUSH0 REVERT JUMPDEST PUSH1 0x2 DUP2 LT PUSH2 0x2EA JUMPI PUSH2 0x2E9 PUSH2 0x2AC JUMP JUMPDEST JUMPDEST POP JUMP JUMPDEST PUSH0 DUP2 SWAP1 POP PUSH2 0x2FA DUP3 PUSH2 0x2D9 JUMP JUMPDEST SWAP2 SWAP1 POP JUMP JUMPDEST PUSH0 PUSH2 0x309 DUP3 PUSH2 0x2ED JUMP JUMPDEST SWAP1 POP SWAP2 SWAP1 POP JUMP JUMPDEST PUSH2 0x319 DUP2 PUSH2 0x2FF JUMP JUMPDEST DUP3 MSTORE POP POP JUMP JUMPDEST PUSH0 PUSH1 0x20 DUP3 ADD SWAP1 POP PUSH2 0x332 PUSH0 DUP4 ADD DUP5 PUSH2 0x310 JUMP JUMPDEST SWAP3 SWAP2 POP POP JUMP JUMPDEST PUSH0 DUP3 DUP3 MSTORE PUSH1 0x20 DUP3 ADD SWAP1 POP SWAP3 SWAP2 POP POP JUMP JUMPDEST PUSH32 0x496E73756666696369656E742066756E64732C20706C656173652066756E6420 PUSH0 DUP3 ADD MSTORE PUSH32 0x796F7572206163636F756E7420616E642074727920616761696E000000000000 PUSH1 0x20 DUP3 ADD MSTORE POP JUMP JUMPDEST PUSH0 PUSH2 0x3A2 PUSH1 0x3A DUP4 PUSH2 0x338 JUMP JUMPDEST SWAP2 POP PUSH2 0x3AD DUP3 PUSH2 0x348 JUMP JUMPDEST PUSH1 0x40 DUP3 ADD SWAP1 POP SWAP2 SWAP1 POP JUMP JUMPDEST PUSH0 PUSH1 0x20 DUP3 ADD SWAP1 POP DUP2 DUP2 SUB PUSH0 DUP4 ADD MSTORE PUSH2 0x3CF DUP2 PUSH2 0x396 JUMP JUMPDEST SWAP1 POP SWAP2 SWAP1 POP JUMP JUMPDEST PUSH32 0x526F6F6D206973206F636375706965642C20636865636B20696E20616761696E PUSH0 DUP3 ADD MSTORE PUSH32 0x20736F6D65206F74686572206461790000000000000000000000000000000000 PUSH1 0x20 DUP3 ADD MSTORE POP JUMP JUMPDEST PUSH0 PUSH2 0x430 PUSH1 0x2F DUP4 PUSH2 0x338 JUMP JUMPDEST SWAP2 POP PUSH2 0x43B DUP3 PUSH2 0x3D6 JUMP JUMPDEST PUSH1 0x40 DUP3 ADD SWAP1 POP SWAP2 SWAP1 POP JUMP JUMPDEST PUSH0 PUSH1 0x20 DUP3 ADD SWAP1 POP DUP2 DUP2 SUB PUSH0 DUP4 ADD MSTORE PUSH2 0x45D DUP2 PUSH2 0x424 JUMP JUMPDEST SWAP1 POP SWAP2 SWAP1 POP JUMP JUMPDEST PUSH0 PUSH2 0x46E DUP3 PUSH2 0x254 JUMP JUMPDEST SWAP1 POP SWAP2 SWAP1 POP JUMP JUMPDEST PUSH2 0x47E DUP2 PUSH2 0x464 JUMP JUMPDEST DUP3 MSTORE POP POP JUMP JUMPDEST PUSH0 DUP2 SWAP1 POP SWAP2 SWAP1 POP JUMP JUMPDEST PUSH2 0x496 DUP2 PUSH2 0x484 JUMP JUMPDEST DUP3 MSTORE POP POP JUMP JUMPDEST PUSH0 PUSH1 0x40 DUP3 ADD SWAP1 POP PUSH2 0x4AF PUSH0 DUP4 ADD DUP6 PUSH2 0x475 JUMP JUMPDEST PUSH2 0x4BC PUSH1 0x20 DUP4 ADD DUP5 PUSH2 0x48D JUMP JUMPDEST SWAP4 SWAP3 POP POP POP JUMP INVALID LOG2 PUSH5 0x6970667358 0x22 SLT KECCAK256 PUSH26 0xBB9518DED15A4366D37C17368C3E6BB97DF0225CFEC88DD4D574 0xB6 PUSH30 0x43F56364736F6C634300081A003300000000000000000000000000000000 "
				},
				"gasEstimates": {
					"creation": {
						"codeDepositCost": "254600",
						"executionCost": "48905",
						"totalCost": "303505"
					},
					"external": {
						"bookRoom()": "infinite",
						"currentStatus()": "2626",
						"owner()": "2483"
					}
				},
				"methodIdentifiers": {
					"bookRoom()": "b55a3910",
					"currentStatus()": "ef8a9235",
					"owner()": "8da5cb5b"
				}
			},
			"storageLayout": {
				"storage": [
					{
						"astId": 3,
						"contract": "contracts/HotelRoom.sol:HotelRoom",
						"label": "owner",
						"offset": 0,
						"slot": "0",
						"type": "t_address_payable"
					},
					{
						"astId": 9,
						"contract": "contracts/HotelRoom.sol:HotelRoom",
						"label": "currentStatus",
						"offset": 20,
						"slot": "0",
						"type": "t_enum(Status)6"
					}
				],
				"types": {
					"t_address_payable": {
						"encoding": "inplace",
						"label": "address payable",
						"numberOfBytes": "20"
					},
					"t_enum(Status)6": {
						"encoding": "inplace",
						"label": "enum HotelRoom.Status",
						"numberOfBytes": "1"
					}
				}
			},
			"userdoc": {
				"kind": "user",
				"methods": {},
				"version": 1
			}
		}
	}
}