{
	"data": {
		"bytecode": {
			"linkReferences": {},
			"object": "60806040526040518060600160405280600160ff168152602001600260ff168152602001600360ff168152505f90600361003a9291906101b5565b5060405180606001604052806040518060400160405280600581526020017f4170706c6500000000000000000000000000000000000000000000000000000081525081526020016040518060400160405280600681526020017f4f72616e6765000000000000000000000000000000000000000000000000000081525081526020016040518060400160405280600681526020017f42616e616e6100000000000000000000000000000000000000000000000000008152508152506001906003610105929190610205565b5060405180606001604052806040518060600160405280600160ff168152602001600260ff168152602001600360ff1681525081526020016040518060600160405280600460ff168152602001600560ff168152602001600660ff1681525081526020016040518060600160405280600760ff168152602001600860ff168152602001600960ff1681525081525060029060036101a392919061025c565b503480156101af575f80fd5b5061067a565b828054828255905f5260205f209081019282156101f4579160200282015b828111156101f3578251829060ff169055916020019190600101906101d3565b5b50905061020191906102b5565b5090565b828054828255905f5260205f2090810192821561024b579160200282015b8281111561024a57825182908161023a91906105ab565b5091602001919060010190610223565b5b50905061025891906102d0565b5090565b828054828255905f5260205f209081019282156102a4579160200282015b828111156102a3578251829060036102939291906101b5565b509160200191906001019061027a565b5b5090506102b191906102f3565b5090565b5b808211156102cc575f815f9055506001016102b6565b5090565b5b808211156102ef575f81816102e69190610316565b506001016102d1565b5090565b5b80821115610312575f81816103099190610353565b506001016102f4565b5090565b508054610322906103d5565b5f825580601f106103335750610350565b601f0160209004905f5260205f209081019061034f91906102b5565b5b50565b5080545f8255905f5260205f209081019061036e91906102b5565b50565b5f81519050919050565b7f4e487b71000000000000000000000000000000000000000000000000000000005f52604160045260245ffd5b7f4e487b71000000000000000000000000000000000000000000000000000000005f52602260045260245ffd5b5f60028204905060018216806103ec57607f821691505b6020821081036103ff576103fe6103a8565b5b50919050565b5f819050815f5260205f209050919050565b5f6020601f8301049050919050565b5f82821b905092915050565b5f600883026104617fffffffffffffffffffffffffffffffffffffffffffffffffffffffffffffffff82610426565b61046b8683610426565b95508019841693508086168417925050509392505050565b5f819050919050565b5f819050919050565b5f6104af6104aa6104a584610483565b61048c565b610483565b9050919050565b5f819050919050565b6104c883610495565b6104dc6104d4826104b6565b848454610432565b825550505050565b5f90565b6104f06104e4565b6104fb8184846104bf565b505050565b5b8181101561051e576105135f826104e8565b600181019050610501565b5050565b601f8211156105635761053481610405565b61053d84610417565b8101602085101561054c578190505b61056061055885610417565b830182610500565b50505b505050565b5f82821c905092915050565b5f6105835f1984600802610568565b1980831691505092915050565b5f61059b8383610574565b9150826002028217905092915050565b6105b482610371565b67ffffffffffffffff8111156105cd576105cc61037b565b5b6105d782546103d5565b6105e2828285610522565b5f60209050601f831160018114610613575f8415610601578287015190505b61060b8582610590565b865550610672565b601f19841661062186610405565b5f5b8281101561064857848901518255600182019150602085019450602081019050610623565b868310156106655784890151610661601f891682610574565b8355505b6001600288020188555050505b505050505050565b610917806106875f395ff3fe608060405234801561000f575f80fd5b5060043610610060575f3560e01c806338d94193146100645780633a5fbaaa146100945780636422c4c8146100b0578063cdbfa5b5146100e0578063d3268fc1146100fe578063e07a6c341461012e575b5f80fd5b61007e60048036038101906100799190610384565b61015e565b60405161008b919061041f565b60405180910390f35b6100ae60048036038101906100a9919061056b565b610204565b005b6100ca60048036038101906100c59190610384565b610239565b6040516100d7919061041f565b60405180910390f35b6100e86102df565b6040516100f591906105c1565b60405180910390f35b610118600480360381019061011391906105da565b6102eb565b60405161012591906105c1565b60405180910390f35b61014860048036038101906101439190610384565b610321565b60405161015591906105c1565b60405180910390f35b6003818154811061016d575f80fd5b905f5260205f20015f91509050805461018590610645565b80601f01602080910402602001604051908101604052809291908181526020018280546101b190610645565b80156101fc5780601f106101d3576101008083540402835291602001916101fc565b820191905f5260205f20905b8154815290600101906020018083116101df57829003601f168201915b505050505081565b600381908060018154018082558091505060019003905f5260205f20015f9091909190915090816102359190610812565b5050565b60018181548110610248575f80fd5b905f5260205f20015f91509050805461026090610645565b80601f016020809104026020016040519081016040528092919081815260200182805461028c90610645565b80156102d75780601f106102ae576101008083540402835291602001916102d7565b820191905f5260205f20905b8154815290600101906020018083116102ba57829003601f168201915b505050505081565b5f600380549050905090565b600282815481106102fa575f80fd5b905f5260205f2001818154811061030f575f80fd5b905f5260205f20015f91509150505481565b5f818154811061032f575f80fd5b905f5260205f20015f915090505481565b5f604051905090565b5f80fd5b5f80fd5b5f819050919050565b61036381610351565b811461036d575f80fd5b50565b5f8135905061037e8161035a565b92915050565b5f6020828403121561039957610398610349565b5b5f6103a684828501610370565b91505092915050565b5f81519050919050565b5f82825260208201905092915050565b8281835e5f83830152505050565b5f601f19601f8301169050919050565b5f6103f1826103af565b6103fb81856103b9565b935061040b8185602086016103c9565b610414816103d7565b840191505092915050565b5f6020820190508181035f83015261043781846103e7565b905092915050565b5f80fd5b5f80fd5b7f4e487b71000000000000000000000000000000000000000000000000000000005f52604160045260245ffd5b61047d826103d7565b810181811067ffffffffffffffff8211171561049c5761049b610447565b5b80604052505050565b5f6104ae610340565b90506104ba8282610474565b919050565b5f67ffffffffffffffff8211156104d9576104d8610447565b5b6104e2826103d7565b9050602081019050919050565b828183375f83830152505050565b5f61050f61050a846104bf565b6104a5565b90508281526020810184848401111561052b5761052a610443565b5b6105368482856104ef565b509392505050565b5f82601f8301126105525761055161043f565b5b81356105628482602086016104fd565b91505092915050565b5f602082840312156105805761057f610349565b5b5f82013567ffffffffffffffff81111561059d5761059c61034d565b5b6105a98482850161053e565b91505092915050565b6105bb81610351565b82525050565b5f6020820190506105d45f8301846105b2565b92915050565b5f80604083850312156105f0576105ef610349565b5b5f6105fd85828601610370565b925050602061060e85828601610370565b9150509250929050565b7f4e487b71000000000000000000000000000000000000000000000000000000005f52602260045260245ffd5b5f600282049050600182168061065c57607f821691505b60208210810361066f5761066e610618565b5b50919050565b5f819050815f5260205f209050919050565b5f6020601f8301049050919050565b5f82821b905092915050565b5f600883026106d17fffffffffffffffffffffffffffffffffffffffffffffffffffffffffffffffff82610696565b6106db8683610696565b95508019841693508086168417925050509392505050565b5f819050919050565b5f61071661071161070c84610351565b6106f3565b610351565b9050919050565b5f819050919050565b61072f836106fc565b61074361073b8261071d565b8484546106a2565b825550505050565b5f90565b61075761074b565b610762818484610726565b505050565b5b818110156107855761077a5f8261074f565b600181019050610768565b5050565b601f8211156107ca5761079b81610675565b6107a484610687565b810160208510156107b3578190505b6107c76107bf85610687565b830182610767565b50505b505050565b5f82821c905092915050565b5f6107ea5f19846008026107cf565b1980831691505092915050565b5f61080283836107db565b9150826002028217905092915050565b61081b826103af565b67ffffffffffffffff81111561083457610833610447565b5b61083e8254610645565b610849828285610789565b5f60209050601f83116001811461087a575f8415610868578287015190505b61087285826107f7565b8655506108d9565b601f19841661088886610675565b5f5b828110156108af5784890151825560018201915060208501945060208101905061088a565b868310156108cc57848901516108c8601f8916826107db565b8355505b6001600288020188555050505b50505050505056fea2646970667358221220e4850ec7cd6d090b76a10649715734cf5f4a586bf44bb55248c42b8aa5c723f464736f6c634300081a0033",
			"opcodes": "PUSH1 0x80 PUSH1 0x40 MSTORE PUSH1 0x40 MLOAD DUP1 PUSH1 0x60 ADD PUSH1 0x40 MSTORE DUP1 PUSH1 0x1 PUSH1 0xFF AND DUP2 MSTORE PUSH1 0x20 ADD PUSH1 0x2 PUSH1 0xFF AND DUP2 MSTORE PUSH1 0x20 ADD PUSH1 0x3 PUSH1 0xFF AND DUP2 MSTORE POP PUSH0 SWAP1 PUSH1 0x3 PUSH2 0x3A SWAP3 SWAP2 SWAP1 PUSH2 0x1B5 JUMP JUMPDEST POP PUSH1 0x40 MLOAD DUP1 PUSH1 0x60 ADD PUSH1 0x40 MSTORE DUP1 PUSH1 0x40 MLOAD DUP1 PUSH1 0x40 ADD PUSH1 0x40 MSTORE DUP1 PUSH1 0x5 DUP2 MSTORE PUSH1 0x20 ADD PUSH32 0x4170706C65000000000000000000000000000000000000000000000000000000 DUP2 MSTORE POP DUP2 MSTORE PUSH1 0x20 ADD PUSH1 0x40 MLOAD DUP1 PUSH1 0x40 ADD PUSH1 0x40 MSTORE DUP1 PUSH1 0x6 DUP2 MSTORE PUSH1 0x20 ADD PUSH32 0x4F72616E67650000000000000000000000000000000000000000000000000000 DUP2 MSTORE POP DUP2 MSTORE PUSH1 0x20 ADD PUSH1 0x40 MLOAD DUP1 PUSH1 0x40 ADD PUSH1 0x40 MSTORE DUP1 PUSH1 0x6 DUP2 MSTORE PUSH1 0x20 ADD PUSH32 0x42616E616E610000000000000000000000000000000000000000000000000000 DUP2 MSTORE POP DUP2 MSTORE POP PUSH1 0x1 SWAP1 PUSH1 0x3 PUSH2 0x105 SWAP3 SWAP2 SWAP1 PUSH2 0x205 JUMP JUMPDEST POP PUSH1 0x40 MLOAD DUP1 PUSH1 0x60 ADD PUSH1 0x40 MSTORE DUP1 PUSH1 0x40 MLOAD DUP1 PUSH1 0x60 ADD PUSH1 0x40 MSTORE DUP1 PUSH1 0x1 PUSH1 0xFF AND DUP2 MSTORE PUSH1 0x20 ADD PUSH1 0x2 PUSH1 0xFF AND DUP2 MSTORE PUSH1 0x20 ADD PUSH1 0x3 PUSH1 0xFF AND DUP2 MSTORE POP DUP2 MSTORE PUSH1 0x20 ADD PUSH1 0x40 MLOAD DUP1 PUSH1 0x60 ADD PUSH1 0x40 MSTORE DUP1 PUSH1 0x4 PUSH1 0xFF AND DUP2 MSTORE PUSH1 0x20 ADD PUSH1 0x5 PUSH1 0xFF AND DUP2 MSTORE PUSH1 0x20 ADD PUSH1 0x6 PUSH1 0xFF AND DUP2 MSTORE POP DUP2 MSTORE PUSH1 0x20 ADD PUSH1 0x40 MLOAD DUP1 PUSH1 0x60 ADD PUSH1 0x40 MSTORE DUP1 PUSH1 0x7 PUSH1 0xFF AND DUP2 MSTORE PUSH1 0x20 ADD PUSH1 0x8 PUSH1 0xFF AND DUP2 MSTORE PUSH1 0x20 ADD PUSH1 0x9 PUSH1 0xFF AND DUP2 MSTORE POP DUP2 MSTORE POP PUSH1 0x2 SWAP1 PUSH1 0x3 PUSH2 0x1A3 SWAP3 SWAP2 SWAP1 PUSH2 0x25C JUMP JUMPDEST POP CALLVALUE DUP1 ISZERO PUSH2 0x1AF JUMPI PUSH0 DUP1 REVERT JUMPDEST POP PUSH2 0x67A JUMP JUMPDEST DUP3 DUP1 SLOAD DUP3 DUP3 SSTORE SWAP1 PUSH0 MSTORE PUSH1 0x20 PUSH0 KECCAK256 SWAP1 DUP2 ADD SWAP3 DUP3 ISZERO PUSH2 0x1F4 JUMPI SWAP2 PUSH1 0x20 MUL DUP3 ADD JUMPDEST DUP3 DUP2 GT ISZERO PUSH2 0x1F3 JUMPI DUP3 MLOAD DUP3 SWAP1 PUSH1 0xFF AND SWAP1 SSTORE SWAP2 PUSH1 0x20 ADD SWAP2 SWAP1 PUSH1 0x1 ADD SWAP1 PUSH2 0x1D3 JUMP JUMPDEST JUMPDEST POP SWAP1 POP PUSH2 0x201 SWAP2 SWAP1 PUSH2 0x2B5 JUMP JUMPDEST POP SWAP1 JUMP JUMPDEST DUP3 DUP1 SLOAD DUP3 DUP3 SSTORE SWAP1 PUSH0 MSTORE PUSH1 0x20 PUSH0 KECCAK256 SWAP1 DUP2 ADD SWAP3 DUP3 ISZERO PUSH2 0x24B JUMPI SWAP2 PUSH1 0x20 MUL DUP3 ADD JUMPDEST DUP3 DUP2 GT ISZERO PUSH2 0x24A JUMPI DUP3 MLOAD DUP3 SWAP1 DUP2 PUSH2 0x23A SWAP2 SWAP1 PUSH2 0x5AB JUMP JUMPDEST POP SWAP2 PUSH1 0x20 ADD SWAP2 SWAP1 PUSH1 0x1 ADD SWAP1 PUSH2 0x223 JUMP JUMPDEST JUMPDEST POP SWAP1 POP PUSH2 0x258 SWAP2 SWAP1 PUSH2 0x2D0 JUMP JUMPDEST POP SWAP1 JUMP JUMPDEST DUP3 DUP1 SLOAD DUP3 DUP3 SSTORE SWAP1 PUSH0 MSTORE PUSH1 0x20 PUSH0 KECCAK256 SWAP1 DUP2 ADD SWAP3 DUP3 ISZERO PUSH2 0x2A4 JUMPI SWAP2 PUSH1 0x20 MUL DUP3 ADD JUMPDEST DUP3 DUP2 GT ISZERO PUSH2 0x2A3 JUMPI DUP3 MLOAD DUP3 SWAP1 PUSH1 0x3 PUSH2 0x293 SWAP3 SWAP2 SWAP1 PUSH2 0x1B5 JUMP JUMPDEST POP SWAP2 PUSH1 0x20 ADD SWAP2 SWAP1 PUSH1 0x1 ADD SWAP1 PUSH2 0x27A JUMP JUMPDEST JUMPDEST POP SWAP1 POP PUSH2 0x2B1 SWAP2 SWAP1 PUSH2 0x2F3 JUMP JUMPDEST POP SWAP1 JUMP JUMPDEST JUMPDEST DUP1 DUP3 GT ISZERO PUSH2 0x2CC JUMPI PUSH0 DUP2 PUSH0 SWAP1 SSTORE POP PUSH1 0x1 ADD PUSH2 0x2B6 JUMP JUMPDEST POP SWAP1 JUMP JUMPDEST JUMPDEST DUP1 DUP3 GT ISZERO PUSH2 0x2EF JUMPI PUSH0 DUP2 DUP2 PUSH2 0x2E6 SWAP2 SWAP1 PUSH2 0x316 JUMP JUMPDEST POP PUSH1 0x1 ADD PUSH2 0x2D1 JUMP JUMPDEST POP SWAP1 JUMP JUMPDEST JUMPDEST DUP1 DUP3 GT ISZERO PUSH2 0x312 JUMPI PUSH0 DUP2 DUP2 PUSH2 0x309 SWAP2 SWAP1 PUSH2 0x353 JUMP JUMPDEST POP PUSH1 0x1 ADD PUSH2 0x2F4 JUMP JUMPDEST POP SWAP1 JUMP JUMPDEST POP DUP1 SLOAD PUSH2 0x322 SWAP1 PUSH2 0x3D5 JUMP JUMPDEST PUSH0 DUP3 SSTORE DUP1 PUSH1 0x1F LT PUSH2 0x333 JUMPI POP PUSH2 0x350 JUMP JUMPDEST PUSH1 0x1F ADD PUSH1 0x20 SWAP1 DIV SWAP1 PUSH0 MSTORE PUSH1 0x20 PUSH0 KECCAK256 SWAP1 DUP2 ADD SWAP1 PUSH2 0x34F SWAP2 SWAP1 PUSH2 0x2B5 JUMP JUMPDEST JUMPDEST POP JUMP JUMPDEST POP DUP1 SLOAD PUSH0 DUP3 SSTORE SWAP1 PUSH0 MSTORE PUSH1 0x20 PUSH0 KECCAK256 SWAP1 DUP2 ADD SWAP1 PUSH2 0x36E SWAP2 SWAP1 PUSH2 0x2B5 JUMP JUMPDEST POP JUMP JUMPDEST PUSH0 DUP2 MLOAD SWAP1 POP SWAP2 SWAP1 POP JUMP JUMPDEST PUSH32 0x4E487B7100000000000000000000000000000000000000000000000000000000 PUSH0 MSTORE PUSH1 0x41 PUSH1 0x4 MSTORE PUSH1 0x24 PUSH0 REVERT JUMPDEST PUSH32 0x4E487B7100000000000000000000000000000000000000000000000000000000 PUSH0 MSTORE PUSH1 0x22 PUSH1 0x4 MSTORE PUSH1 0x24 PUSH0 REVERT JUMPDEST PUSH0 PUSH1 0x2 DUP3 DIV SWAP1 POP PUSH1 0x1 DUP3 AND DUP1 PUSH2 0x3EC JUMPI PUSH1 0x7F DUP3 AND SWAP2 POP JUMPDEST PUSH1 0x20 DUP3 LT DUP2 SUB PUSH2 0x3FF JUMPI PUSH2 0x3FE PUSH2 0x3A8 JUMP JUMPDEST JUMPDEST POP SWAP2 SWAP1 POP JUMP JUMPDEST PUSH0 DUP2 SWAP1 POP DUP2 PUSH0 MSTORE PUSH1 0x20 PUSH0 KECCAK256 SWAP1 POP SWAP2 SWAP1 POP JUMP JUMPDEST PUSH0 PUSH1 0x20 PUSH1 0x1F DUP4 ADD DIV SWAP1 POP SWAP2 SWAP1 POP JUMP JUMPDEST PUSH0 DUP3 DUP3 SHL SWAP1 POP SWAP3 SWAP2 POP POP JUMP JUMPDEST PUSH0 PUSH1 0x8 DUP4 MUL PUSH2 0x461 PUSH32 0xFFFFFFFFFFFFFFFFFFFFFFFFFFFFFFFFFFFFFFFFFFFFFFFFFFFFFFFFFFFFFFFF DUP3 PUSH2 0x426 JUMP JUMPDEST PUSH2 0x46B DUP7 DUP4 PUSH2 0x426 JUMP JUMPDEST SWAP6 POP DUP1 NOT DUP5 AND SWAP4 POP DUP1 DUP7 AND DUP5 OR SWAP3 POP POP POP SWAP4 SWAP3 POP POP POP JUMP JUMPDEST PUSH0 DUP2 SWAP1 POP SWAP2 SWAP1 POP JUMP JUMPDEST PUSH0 DUP2 SWAP1 POP SWAP2 SWAP1 POP JUMP JUMPDEST PUSH0 PUSH2 0x4AF PUSH2 0x4AA PUSH2 0x4A5 DUP5 PUSH2 0x483 JUMP JUMPDEST PUSH2 0x48C JUMP JUMPDEST PUSH2 0x483 JUMP JUMPDEST SWAP1 POP SWAP2 SWAP1 POP JUMP JUMPDEST PUSH0 DUP2 SWAP1 POP SWAP2 SWAP1 POP JUMP JUMPDEST PUSH2 0x4C8 DUP4 PUSH2 0x495 JUMP JUMPDEST PUSH2 0x4DC PUSH2 0x4D4 DUP3 PUSH2 0x4B6 JUMP JUMPDEST DUP5 DUP5 SLOAD PUSH2 0x432 JUMP JUMPDEST DUP3 SSTORE POP POP POP POP JUMP JUMPDEST PUSH0 SWAP1 JUMP JUMPDEST PUSH2 0x4F0 PUSH2 0x4E4 JUMP JUMPDEST PUSH2 0x4FB DUP2 DUP5 DUP5 PUSH2 0x4BF JUMP JUMPDEST POP POP POP JUMP JUMPDEST JUMPDEST DUP2 DUP2 LT ISZERO PUSH2 0x51E JUMPI PUSH2 0x513 PUSH0 DUP3 PUSH2 0x4E8 JUMP JUMPDEST PUSH1 0x1 DUP2 ADD SWAP1 POP PUSH2 0x501 JUMP JUMPDEST POP POP JUMP JUMPDEST PUSH1 0x1F DUP3 GT ISZERO PUSH2 0x563 JUMPI PUSH2 0x534 DUP2 PUSH2 0x405 JUMP JUMPDEST PUSH2 0x53D DUP5 PUSH2 0x417 JUMP JUMPDEST DUP2 ADD PUSH1 0x20 DUP6 LT ISZERO PUSH2 0x54C JUMPI DUP2 SWAP1 POP JUMPDEST PUSH2 0x560 PUSH2 0x558 DUP6 PUSH2 0x417 JUMP JUMPDEST DUP4 ADD DUP3 PUSH2 0x500 JUMP JUMPDEST POP POP JUMPDEST POP POP POP JUMP JUMPDEST PUSH0 DUP3 DUP3 SHR SWAP1 POP SWAP3 SWAP2 POP POP JUMP JUMPDEST PUSH0 PUSH2 0x583 PUSH0 NOT DUP5 PUSH1 0x8 MUL PUSH2 0x568 JUMP JUMPDEST NOT DUP1 DUP4 AND SWAP2 POP POP SWAP3 SWAP2 POP POP JUMP JUMPDEST PUSH0 PUSH2 0x59B DUP4 DUP4 PUSH2 0x574 JUMP JUMPDEST SWAP2 POP DUP3 PUSH1 0x2 MUL DUP3 OR SWAP1 POP SWAP3 SWAP2 POP POP JUMP JUMPDEST PUSH2 0x5B4 DUP3 PUSH2 0x371 JUMP JUMPDEST PUSH8 0xFFFFFFFFFFFFFFFF DUP2 GT ISZERO PUSH2 0x5CD JUMPI PUSH2 0x5CC PUSH2 0x37B JUMP JUMPDEST JUMPDEST PUSH2 0x5D7 DUP3 SLOAD PUSH2 0x3D5 JUMP JUMPDEST PUSH2 0x5E2 DUP3 DUP3 DUP6 PUSH2 0x522 JUMP JUMPDEST PUSH0 PUSH1 0x20 SWAP1 POP PUSH1 0x1F DUP4 GT PUSH1 0x1 DUP2 EQ PUSH2 0x613 JUMPI PUSH0 DUP5 ISZERO PUSH2 0x601 JUMPI DUP3 DUP8 ADD MLOAD SWAP1 POP JUMPDEST PUSH2 0x60B DUP6 DUP3 PUSH2 0x590 JUMP JUMPDEST DUP7 SSTORE POP PUSH2 0x672 JUMP JUMPDEST PUSH1 0x1F NOT DUP5 AND PUSH2 0x621 DUP7 PUSH2 0x405 JUMP JUMPDEST PUSH0 JUMPDEST DUP3 DUP2 LT ISZERO PUSH2 0x648 JUMPI DUP5 DUP10 ADD MLOAD DUP3 SSTORE PUSH1 0x1 DUP3 ADD SWAP2 POP PUSH1 0x20 DUP6 ADD SWAP5 POP PUSH1 0x20 DUP2 ADD SWAP1 POP PUSH2 0x623 JUMP JUMPDEST DUP7 DUP4 LT ISZERO PUSH2 0x665 JUMPI DUP5 DUP10 ADD MLOAD PUSH2 0x661 PUSH1 0x1F DUP10 AND DUP3 PUSH2 0x574 JUMP JUMPDEST DUP4 SSTORE POP JUMPDEST PUSH1 0x1 PUSH1 0x2 DUP9 MUL ADD DUP9 SSTORE POP POP POP JUMPDEST POP POP POP POP POP POP JUMP JUMPDEST PUSH2 0x917 DUP1 PUSH2 0x687 PUSH0 CODECOPY PUSH0 RETURN INVALID PUSH1 0x80 PUSH1 0x40 MSTORE CALLVALUE DUP1 ISZERO PUSH2 0xF JUMPI PUSH0 DUP1 REVERT JUMPDEST POP PUSH1 0x4 CALLDATASIZE LT PUSH2 0x60 JUMPI PUSH0 CALLDATALOAD PUSH1 0xE0 SHR DUP1 PUSH4 0x38D94193 EQ PUSH2 0x64 JUMPI DUP1 PUSH4 0x3A5FBAAA EQ PUSH2 0x94 JUMPI DUP1 PUSH4 0x6422C4C8 EQ PUSH2 0xB0 JUMPI DUP1 PUSH4 0xCDBFA5B5 EQ PUSH2 0xE0 JUMPI DUP1 PUSH4 0xD3268FC1 EQ PUSH2 0xFE JUMPI DUP1 PUSH4 0xE07A6C34 EQ PUSH2 0x12E JUMPI JUMPDEST PUSH0 DUP1 REVERT JUMPDEST PUSH2 0x7E PUSH1 0x4 DUP1 CALLDATASIZE SUB DUP2 ADD SWAP1 PUSH2 0x79 SWAP2 SWAP1 PUSH2 0x384 JUMP JUMPDEST PUSH2 0x15E JUMP JUMPDEST PUSH1 0x40 MLOAD PUSH2 0x8B SWAP2 SWAP1 PUSH2 0x41F JUMP JUMPDEST PUSH1 0x40 MLOAD DUP1 SWAP2 SUB SWAP1 RETURN JUMPDEST PUSH2 0xAE PUSH1 0x4 DUP1 CALLDATASIZE SUB DUP2 ADD SWAP1 PUSH2 0xA9 SWAP2 SWAP1 PUSH2 0x56B JUMP JUMPDEST PUSH2 0x204 JUMP JUMPDEST STOP JUMPDEST PUSH2 0xCA PUSH1 0x4 DUP1 CALLDATASIZE SUB DUP2 ADD SWAP1 PUSH2 0xC5 SWAP2 SWAP1 PUSH2 0x384 JUMP JUMPDEST PUSH2 0x239 JUMP JUMPDEST PUSH1 0x40 MLOAD PUSH2 0xD7 SWAP2 SWAP1 PUSH2 0x41F JUMP JUMPDEST PUSH1 0x40 MLOAD DUP1 SWAP2 SUB SWAP1 RETURN JUMPDEST PUSH2 0xE8 PUSH2 0x2DF JUMP JUMPDEST PUSH1 0x40 MLOAD PUSH2 0xF5 SWAP2 SWAP1 PUSH2 0x5C1 JUMP JUMPDEST PUSH1 0x40 MLOAD DUP1 SWAP2 SUB SWAP1 RETURN JUMPDEST PUSH2 0x118 PUSH1 0x4 DUP1 CALLDATASIZE SUB DUP2 ADD SWAP1 PUSH2 0x113 SWAP2 SWAP1 PUSH2 0x5DA JUMP JUMPDEST PUSH2 0x2EB JUMP JUMPDEST PUSH1 0x40 MLOAD PUSH2 0x125 SWAP2 SWAP1 PUSH2 0x5C1 JUMP JUMPDEST PUSH1 0x40 MLOAD DUP1 SWAP2 SUB SWAP1 RETURN JUMPDEST PUSH2 0x148 PUSH1 0x4 DUP1 CALLDATASIZE SUB DUP2 ADD SWAP1 PUSH2 0x143 SWAP2 SWAP1 PUSH2 0x384 JUMP JUMPDEST PUSH2 0x321 JUMP JUMPDEST PUSH1 0x40 MLOAD PUSH2 0x155 SWAP2 SWAP1 PUSH2 0x5C1 JUMP JUMPDEST PUSH1 0x40 MLOAD DUP1 SWAP2 SUB SWAP1 RETURN JUMPDEST PUSH1 0x3 DUP2 DUP2 SLOAD DUP2 LT PUSH2 0x16D JUMPI PUSH0 DUP1 REVERT JUMPDEST SWAP1 PUSH0 MSTORE PUSH1 0x20 PUSH0 KECCAK256 ADD PUSH0 SWAP2 POP SWAP1 POP DUP1 SLOAD PUSH2 0x185 SWAP1 PUSH2 0x645 JUMP JUMPDEST DUP1 PUSH1 0x1F ADD PUSH1 0x20 DUP1 SWAP2 DIV MUL PUSH1 0x20 ADD PUSH1 0x40 MLOAD SWAP1 DUP2 ADD PUSH1 0x40 MSTORE DUP1 SWAP3 SWAP2 SWAP1 DUP2 DUP2 MSTORE PUSH1 0x20 ADD DUP3 DUP1 SLOAD PUSH2 0x1B1 SWAP1 PUSH2 0x645 JUMP JUMPDEST DUP1 ISZERO PUSH2 0x1FC JUMPI DUP1 PUSH1 0x1F LT PUSH2 0x1D3 JUMPI PUSH2 0x100 DUP1 DUP4 SLOAD DIV MUL DUP4 MSTORE SWAP2 PUSH1 0x20 ADD SWAP2 PUSH2 0x1FC JUMP JUMPDEST DUP3 ADD SWAP2 SWAP1 PUSH0 MSTORE PUSH1 0x20 PUSH0 KECCAK256 SWAP1 JUMPDEST DUP2 SLOAD DUP2 MSTORE SWAP1 PUSH1 0x1 ADD SWAP1 PUSH1 0x20 ADD DUP1 DUP4 GT PUSH2 0x1DF JUMPI DUP3 SWAP1 SUB PUSH1 0x1F AND DUP3 ADD SWAP2 JUMPDEST POP POP POP POP POP DUP2 JUMP JUMPDEST PUSH1 0x3 DUP2 SWAP1 DUP1 PUSH1 0x1 DUP2 SLOAD ADD DUP1 DUP3 SSTORE DUP1 SWAP2 POP POP PUSH1 0x1 SWAP1 SUB SWAP1 PUSH0 MSTORE PUSH1 0x20 PUSH0 KECCAK256 ADD PUSH0 SWAP1 SWAP2 SWAP1 SWAP2 SWAP1 SWAP2 POP SWAP1 DUP2 PUSH2 0x235 SWAP2 SWAP1 PUSH2 0x812 JUMP JUMPDEST POP POP JUMP JUMPDEST PUSH1 0x1 DUP2 DUP2 SLOAD DUP2 LT PUSH2 0x248 JUMPI PUSH0 DUP1 REVERT JUMPDEST SWAP1 PUSH0 MSTORE PUSH1 0x20 PUSH0 KECCAK256 ADD PUSH0 SWAP2 POP SWAP1 POP DUP1 SLOAD PUSH2 0x260 SWAP1 PUSH2 0x645 JUMP JUMPDEST DUP1 PUSH1 0x1F ADD PUSH1 0x20 DUP1 SWAP2 DIV MUL PUSH1 0x20 ADD PUSH1 0x40 MLOAD SWAP1 DUP2 ADD PUSH1 0x40 MSTORE DUP1 SWAP3 SWAP2 SWAP1 DUP2 DUP2 MSTORE PUSH1 0x20 ADD DUP3 DUP1 SLOAD PUSH2 0x28C SWAP1 PUSH2 0x645 JUMP JUMPDEST DUP1 ISZERO PUSH2 0x2D7 JUMPI DUP1 PUSH1 0x1F LT PUSH2 0x2AE JUMPI PUSH2 0x100 DUP1 DUP4 SLOAD DIV MUL DUP4 MSTORE SWAP2 PUSH1 0x20 ADD SWAP2 PUSH2 0x2D7 JUMP JUMPDEST DUP3 ADD SWAP2 SWAP1 PUSH0 MSTORE PUSH1 0x20 PUSH0 KECCAK256 SWAP1 JUMPDEST DUP2 SLOAD DUP2 MSTORE SWAP1 PUSH1 0x1 ADD SWAP1 PUSH1 0x20 ADD DUP1 DUP4 GT PUSH2 0x2BA JUMPI DUP3 SWAP1 SUB PUSH1 0x1F AND DUP3 ADD SWAP2 JUMPDEST POP POP POP POP POP DUP2 JUMP JUMPDEST PUSH0 PUSH1 0x3 DUP1 SLOAD SWAP1 POP SWAP1 POP SWAP1 JUMP JUMPDEST PUSH1 0x2 DUP3 DUP2 SLOAD DUP2 LT PUSH2 0x2FA JUMPI PUSH0 DUP1 REVERT JUMPDEST SWAP1 PUSH0 MSTORE PUSH1 0x20 PUSH0 KECCAK256 ADD DUP2 DUP2 SLOAD DUP2 LT PUSH2 0x30F JUMPI PUSH0 DUP1 REVERT JUMPDEST SWAP1 PUSH0 MSTORE PUSH1 0x20 PUSH0 KECCAK256 ADD PUSH0 SWAP2 POP SWAP2 POP POP SLOAD DUP2 JUMP JUMPDEST PUSH0 DUP2 DUP2 SLOAD DUP2 LT PUSH2 0x32F JUMPI PUSH0 DUP1 REVERT JUMPDEST SWAP1 PUSH0 MSTORE PUSH1 0x20 PUSH0 KECCAK256 ADD PUSH0 SWAP2 POP SWAP1 POP SLOAD DUP2 JUMP JUMPDEST PUSH0 PUSH1 0x40 MLOAD SWAP1 POP SWAP1 JUMP JUMPDEST PUSH0 DUP1 REVERT JUMPDEST PUSH0 DUP1 REVERT JUMPDEST PUSH0 DUP2 SWAP1 POP SWAP2 SWAP1 POP JUMP JUMPDEST PUSH2 0x363 DUP2 PUSH2 0x351 JUMP JUMPDEST DUP2 EQ PUSH2 0x36D JUMPI PUSH0 DUP1 REVERT JUMPDEST POP JUMP JUMPDEST PUSH0 DUP2 CALLDATALOAD SWAP1 POP PUSH2 0x37E DUP2 PUSH2 0x35A JUMP JUMPDEST SWAP3 SWAP2 POP POP JUMP JUMPDEST PUSH0 PUSH1 0x20 DUP3 DUP5 SUB SLT ISZERO PUSH2 0x399 JUMPI PUSH2 0x398 PUSH2 0x349 JUMP JUMPDEST JUMPDEST PUSH0 PUSH2 0x3A6 DUP5 DUP3 DUP6 ADD PUSH2 0x370 JUMP JUMPDEST SWAP2 POP POP SWAP3 SWAP2 POP POP JUMP JUMPDEST PUSH0 DUP2 MLOAD SWAP1 POP SWAP2 SWAP1 POP JUMP JUMPDEST PUSH0 DUP3 DUP3 MSTORE PUSH1 0x20 DUP3 ADD SWAP1 POP SWAP3 SWAP2 POP POP JUMP JUMPDEST DUP3 DUP2 DUP4 MCOPY PUSH0 DUP4 DUP4 ADD MSTORE POP POP POP JUMP JUMPDEST PUSH0 PUSH1 0x1F NOT PUSH1 0x1F DUP4 ADD AND SWAP1 POP SWAP2 SWAP1 POP JUMP JUMPDEST PUSH0 PUSH2 0x3F1 DUP3 PUSH2 0x3AF JUMP JUMPDEST PUSH2 0x3FB DUP2 DUP6 PUSH2 0x3B9 JUMP JUMPDEST SWAP4 POP PUSH2 0x40B DUP2 DUP6 PUSH1 0x20 DUP7 ADD PUSH2 0x3C9 JUMP JUMPDEST PUSH2 0x414 DUP2 PUSH2 0x3D7 JUMP JUMPDEST DUP5 ADD SWAP2 POP POP SWAP3 SWAP2 POP POP JUMP JUMPDEST PUSH0 PUSH1 0x20 DUP3 ADD SWAP1 POP DUP2 DUP2 SUB PUSH0 DUP4 ADD MSTORE PUSH2 0x437 DUP2 DUP5 PUSH2 0x3E7 JUMP JUMPDEST SWAP1 POP SWAP3 SWAP2 POP POP JUMP JUMPDEST PUSH0 DUP1 REVERT JUMPDEST PUSH0 DUP1 REVERT JUMPDEST PUSH32 0x4E487B7100000000000000000000000000000000000000000000000000000000 PUSH0 MSTORE PUSH1 0x41 PUSH1 0x4 MSTORE PUSH1 0x24 PUSH0 REVERT JUMPDEST PUSH2 0x47D DUP3 PUSH2 0x3D7 JUMP JUMPDEST DUP2 ADD DUP2 DUP2 LT PUSH8 0xFFFFFFFFFFFFFFFF DUP3 GT OR ISZERO PUSH2 0x49C JUMPI PUSH2 0x49B PUSH2 0x447 JUMP JUMPDEST JUMPDEST DUP1 PUSH1 0x40 MSTORE POP POP POP JUMP JUMPDEST PUSH0 PUSH2 0x4AE PUSH2 0x340 JUMP JUMPDEST SWAP1 POP PUSH2 0x4BA DUP3 DUP3 PUSH2 0x474 JUMP JUMPDEST SWAP2 SWAP1 POP JUMP JUMPDEST PUSH0 PUSH8 0xFFFFFFFFFFFFFFFF DUP3 GT ISZERO PUSH2 0x4D9 JUMPI PUSH2 0x4D8 PUSH2 0x447 JUMP JUMPDEST JUMPDEST PUSH2 0x4E2 DUP3 PUSH2 0x3D7 JUMP JUMPDEST SWAP1 POP PUSH1 0x20 DUP2 ADD SWAP1 POP SWAP2 SWAP1 POP JUMP JUMPDEST DUP3 DUP2 DUP4 CALLDATACOPY PUSH0 DUP4 DUP4 ADD MSTORE POP POP POP JUMP JUMPDEST PUSH0 PUSH2 0x50F PUSH2 0x50A DUP5 PUSH2 0x4BF JUMP JUMPDEST PUSH2 0x4A5 JUMP JUMPDEST SWAP1 POP DUP3 DUP2 MSTORE PUSH1 0x20 DUP2 ADD DUP5 DUP5 DUP5 ADD GT ISZERO PUSH2 0x52B JUMPI PUSH2 0x52A PUSH2 0x443 JUMP JUMPDEST JUMPDEST PUSH2 0x536 DUP5 DUP3 DUP6 PUSH2 0x4EF JUMP JUMPDEST POP SWAP4 SWAP3 POP POP POP JUMP JUMPDEST PUSH0 DUP3 PUSH1 0x1F DUP4 ADD SLT PUSH2 0x552 JUMPI PUSH2 0x551 PUSH2 0x43F JUMP JUMPDEST JUMPDEST DUP2 CALLDATALOAD PUSH2 0x562 DUP5 DUP3 PUSH1 0x20 DUP7 ADD PUSH2 0x4FD JUMP JUMPDEST SWAP2 POP POP SWAP3 SWAP2 POP POP JUMP JUMPDEST PUSH0 PUSH1 0x20 DUP3 DUP5 SUB SLT ISZERO PUSH2 0x580 JUMPI PUSH2 0x57F PUSH2 0x349 JUMP JUMPDEST JUMPDEST PUSH0 DUP3 ADD CALLDATALOAD PUSH8 0xFFFFFFFFFFFFFFFF DUP2 GT ISZERO PUSH2 0x59D JUMPI PUSH2 0x59C PUSH2 0x34D JUMP JUMPDEST JUMPDEST PUSH2 0x5A9 DUP5 DUP3 DUP6 ADD PUSH2 0x53E JUMP JUMPDEST SWAP2 POP POP SWAP3 SWAP2 POP POP JUMP JUMPDEST PUSH2 0x5BB DUP2 PUSH2 0x351 JUMP JUMPDEST DUP3 MSTORE POP POP JUMP JUMPDEST PUSH0 PUSH1 0x20 DUP3 ADD SWAP1 POP PUSH2 0x5D4 PUSH0 DUP4 ADD DUP5 PUSH2 0x5B2 JUMP JUMPDEST SWAP3 SWAP2 POP POP JUMP JUMPDEST PUSH0 DUP1 PUSH1 0x40 DUP4 DUP6 SUB SLT ISZERO PUSH2 0x5F0 JUMPI PUSH2 0x5EF PUSH2 0x349 JUMP JUMPDEST JUMPDEST PUSH0 PUSH2 0x5FD DUP6 DUP3 DUP7 ADD PUSH2 0x370 JUMP JUMPDEST SWAP3 POP POP PUSH1 0x20 PUSH2 0x60E DUP6 DUP3 DUP7 ADD PUSH2 0x370 JUMP JUMPDEST SWAP2 POP POP SWAP3 POP SWAP3 SWAP1 POP JUMP JUMPDEST PUSH32 0x4E487B7100000000000000000000000000000000000000000000000000000000 PUSH0 MSTORE PUSH1 0x22 PUSH1 0x4 MSTORE PUSH1 0x24 PUSH0 REVERT JUMPDEST PUSH0 PUSH1 0x2 DUP3 DIV SWAP1 POP PUSH1 0x1 DUP3 AND DUP1 PUSH2 0x65C JUMPI PUSH1 0x7F DUP3 AND SWAP2 POP JUMPDEST PUSH1 0x20 DUP3 LT DUP2 SUB PUSH2 0x66F JUMPI PUSH2 0x66E PUSH2 0x618 JUMP JUMPDEST JUMPDEST POP SWAP2 SWAP1 POP JUMP JUMPDEST PUSH0 DUP2 SWAP1 POP DUP2 PUSH0 MSTORE PUSH1 0x20 PUSH0 KECCAK256 SWAP1 POP SWAP2 SWAP1 POP JUMP JUMPDEST PUSH0 PUSH1 0x20 PUSH1 0x1F DUP4 ADD DIV SWAP1 POP SWAP2 SWAP1 POP JUMP JUMPDEST PUSH0 DUP3 DUP3 SHL SWAP1 POP SWAP3 SWAP2 POP POP JUMP JUMPDEST PUSH0 PUSH1 0x8 DUP4 MUL PUSH2 0x6D1 PUSH32 0xFFFFFFFFFFFFFFFFFFFFFFFFFFFFFFFFFFFFFFFFFFFFFFFFFFFFFFFFFFFFFFFF DUP3 PUSH2 0x696 JUMP JUMPDEST PUSH2 0x6DB DUP7 DUP4 PUSH2 0x696 JUMP JUMPDEST SWAP6 POP DUP1 NOT DUP5 AND SWAP4 POP DUP1 DUP7 AND DUP5 OR SWAP3 POP POP POP SWAP4 SWAP3 POP POP POP JUMP JUMPDEST PUSH0 DUP2 SWAP1 POP SWAP2 SWAP1 POP JUMP JUMPDEST PUSH0 PUSH2 0x716 PUSH2 0x711 PUSH2 0x70C DUP5 PUSH2 0x351 JUMP JUMPDEST PUSH2 0x6F3 JUMP JUMPDEST PUSH2 0x351 JUMP JUMPDEST SWAP1 POP SWAP2 SWAP1 POP JUMP JUMPDEST PUSH0 DUP2 SWAP1 POP SWAP2 SWAP1 POP JUMP JUMPDEST PUSH2 0x72F DUP4 PUSH2 0x6FC JUMP JUMPDEST PUSH2 0x743 PUSH2 0x73B DUP3 PUSH2 0x71D JUMP JUMPDEST DUP5 DUP5 SLOAD PUSH2 0x6A2 JUMP JUMPDEST DUP3 SSTORE POP POP POP POP JUMP JUMPDEST PUSH0 SWAP1 JUMP JUMPDEST PUSH2 0x757 PUSH2 0x74B JUMP JUMPDEST PUSH2 0x762 DUP2 DUP5 DUP5 PUSH2 0x726 JUMP JUMPDEST POP POP POP JUMP JUMPDEST JUMPDEST DUP2 DUP2 LT ISZERO PUSH2 0x785 JUMPI PUSH2 0x77A PUSH0 DUP3 PUSH2 0x74F JUMP JUMPDEST PUSH1 0x1 DUP2 ADD SWAP1 POP PUSH2 0x768 JUMP JUMPDEST POP POP JUMP JUMPDEST PUSH1 0x1F DUP3 GT ISZERO PUSH2 0x7CA JUMPI PUSH2 0x79B DUP2 PUSH2 0x675 JUMP JUMPDEST PUSH2 0x7A4 DUP5 PUSH2 0x687 JUMP JUMPDEST DUP2 ADD PUSH1 0x20 DUP6 LT ISZERO PUSH2 0x7B3 JUMPI DUP2 SWAP1 POP JUMPDEST PUSH2 0x7C7 PUSH2 0x7BF DUP6 PUSH2 0x687 JUMP JUMPDEST DUP4 ADD DUP3 PUSH2 0x767 JUMP JUMPDEST POP POP JUMPDEST POP POP POP JUMP JUMPDEST PUSH0 DUP3 DUP3 SHR SWAP1 POP SWAP3 SWAP2 POP POP JUMP JUMPDEST PUSH0 PUSH2 0x7EA PUSH0 NOT DUP5 PUSH1 0x8 MUL PUSH2 0x7CF JUMP JUMPDEST NOT DUP1 DUP4 AND SWAP2 POP POP SWAP3 SWAP2 POP POP JUMP JUMPDEST PUSH0 PUSH2 0x802 DUP4 DUP4 PUSH2 0x7DB JUMP JUMPDEST SWAP2 POP DUP3 PUSH1 0x2 MUL DUP3 OR SWAP1 POP SWAP3 SWAP2 POP POP JUMP JUMPDEST PUSH2 0x81B DUP3 PUSH2 0x3AF JUMP JUMPDEST PUSH8 0xFFFFFFFFFFFFFFFF DUP2 GT ISZERO PUSH2 0x834 JUMPI PUSH2 0x833 PUSH2 0x447 JUMP JUMPDEST JUMPDEST PUSH2 0x83E DUP3 SLOAD PUSH2 0x645 JUMP JUMPDEST PUSH2 0x849 DUP3 DUP3 DUP6 PUSH2 0x789 JUMP JUMPDEST PUSH0 PUSH1 0x20 SWAP1 POP PUSH1 0x1F DUP4 GT PUSH1 0x1 DUP2 EQ PUSH2 0x87A JUMPI PUSH0 DUP5 ISZERO PUSH2 0x868 JUMPI DUP3 DUP8 ADD MLOAD SWAP1 POP JUMPDEST PUSH2 0x872 DUP6 DUP3 PUSH2 0x7F7 JUMP JUMPDEST DUP7 SSTORE POP PUSH2 0x8D9 JUMP JUMPDEST PUSH1 0x1F NOT DUP5 AND PUSH2 0x888 DUP7 PUSH2 0x675 JUMP JUMPDEST PUSH0 JUMPDEST DUP3 DUP2 LT ISZERO PUSH2 0x8AF JUMPI DUP5 DUP10 ADD MLOAD DUP3 SSTORE PUSH1 0x1 DUP3 ADD SWAP2 POP PUSH1 0x20 DUP6 ADD SWAP5 POP PUSH1 0x20 DUP2 ADD SWAP1 POP PUSH2 0x88A JUMP JUMPDEST DUP7 DUP4 LT ISZERO PUSH2 0x8CC JUMPI DUP5 DUP10 ADD MLOAD PUSH2 0x8C8 PUSH1 0x1F DUP10 AND DUP3 PUSH2 0x7DB JUMP JUMPDEST DUP4 SSTORE POP JUMPDEST PUSH1 0x1 PUSH1 0x2 DUP9 MUL ADD DUP9 SSTORE POP POP POP JUMPDEST POP POP POP POP POP POP JUMP INVALID LOG2 PUSH5 0x6970667358 0x22 SLT KECCAK256 0xE4 DUP6 0xE 0xC7 0xCD PUSH14 0x90B76A10649715734CF5F4A586B DELEGATECALL 0x4B 0xB5 MSTORE BASEFEE 0xC4 0x2B DUP11 0xA5 0xC7 0x23 DELEGATECALL PUSH5 0x736F6C6343 STOP ADDMOD BYTE STOP CALLER "
		},
		"gasEstimates": {
			"creation": {
				"codeDepositCost": "465400",
				"executionCost": "infinite",
				"totalCost": "infinite"
			},
			"external": {
				"addValue(string)": "infinite",
				"array(uint256)": "infinite",
				"array2D(uint256,uint256)": "infinite",
				"countValues()": "2484",
				"intArry(uint256)": "infinite",
				"stringArray(uint256)": "infinite"
			}
		},
		"methodIdentifiers": {
			"addValue(string)": "3a5fbaaa",
			"array(uint256)": "38d94193",
			"array2D(uint256,uint256)": "d3268fc1",
			"countValues()": "cdbfa5b5",
			"intArry(uint256)": "e07a6c34",
			"stringArray(uint256)": "6422c4c8"
		}
	},
	"abi": [
		{
			"inputs": [
				{
					"internalType": "string",
					"name": "name",
					"type": "string"
				}
			],
			"name": "addValue",
			"outputs": [],
			"stateMutability": "nonpayable",
			"type": "function"
		},
		{
			"inputs": [
				{
					"internalType": "uint256",
					"name": "",
					"type": "uint256"
				}
			],
			"name": "array",
			"outputs": [
				{
					"internalType": "string",
					"name": "",
					"type": "string"
				}
			],
			"stateMutability": "view",
			"type": "function"
		},
		{
			"inputs": [
				{
					"internalType": "uint256",
					"name": "",
					"type": "uint256"
				},
				{
					"internalType": "uint256",
					"name": "",
					"type": "uint256"
				}
			],
			"name": "array2D",
			"outputs": [
				{
					"internalType": "uint256",
					"name": "",
					"type": "uint256"
				}
			],
			"stateMutability": "view",
			"type": "function"
		},
		{
			"inputs": [],
			"name": "countValues",
			"outputs": [
				{
					"internalType": "uint256",
					"name": "",
					"type": "uint256"
				}
			],
			"stateMutability": "view",
			"type": "function"
		},
		{
			"inputs": [
				{
					"internalType": "uint256",
					"name": "",
					"type": "uint256"
				}
			],
			"name": "intArry",
			"outputs": [
				{
					"internalType": "uint256",
					"name": "",
					"type": "uint256"
				}
			],
			"stateMutability": "view",
			"type": "function"
		},
		{
			"inputs": [
				{
					"internalType": "uint256",
					"name": "",
					"type": "uint256"
				}
			],
			"name": "stringArray",
			"outputs": [
				{
					"internalType": "string",
					"name": "",
					"type": "string"
				}
			],
			"stateMutability": "view",
			"type": "function"
		}
	]
}